:020000022000DC
:1060000000000120756302005D6302005F6302000F
:106010006163020063630200656302000000000028
:1060200000000000000000000000000067630200A4
:1060300069630200000000006B6302006D630200F0
:106040005D1C03006F630200C11C03006F6302004C
:106050006F6302006F6302006F6302006F630200F0
:106060006F6302006F630200C10F03006F630200E1
:106070006F6302006F6302006F6302006F630200D0
:106080006F630200456C02006F6302006F630200E1
:106090006F6302006F630200C13503006F6302008B
:1060A0006F6302006F6302006F6302006F630200A0
:1060B0006F6302006F630200000000000000000038
:1060C0006F6302006F6302006F6302006F63020080
:1060D0006F6302006F6302006F6302000000000044
:1060E00000000000000000000000000000000000B0
:1060F00000000000000000000000000000000000A0
:10610000000000000000000000000000000000008F
:10611000000000000000000000000000000000007F
:10612000000000000000000000000000000000006F
:10613000000000000000000000000000000000005F
:10614000000000000000000000000000000000004F
:10615000000000000000000000000000000000003F
:10616000000000000000000000000000000000002F
:10617000000000000000000000000000000000001F
:10618000000000000000000000000000000000000F
:1061900000000000000000000000000000000000FF
:1061A00000000000000000000000000000000000EF
:1061B00000000000000000000000000000000000DF
:1061C00000000000000000000000000000000000CF
:1061D00000000000000000000000000000000000BF
:1061E00000000000000000000000000000000000AF
:1061F000000000000000000000000000000000009F
:10620000354936480A1A02D0072291438D4634494F
:1062100034480A1A06D00722914381F309880222E2
:1062200082F3148830483149314A00F044F831484B
:106230003149324A00F03FF831483249324A00F0E1
:106240003AF832483249334A00F035F83248334997
:10625000334A00F030F833483349344A00F02BF821
:1062600033483449344A00F026F83448344900228F
:1062700000F02CF833483449002200F027F8334866
:106280003349091A082902DB002202604160314AC1
:1062900090471F481F49884205D00268043003B464
:1062A000904703BCF7E700208646EC46002000211B
:1062B000294A9047FEE7884207D0521A05D0037852
:1062C00001300B700131013AF9D17047884202D098
:1062D00002700130FAE770470000012000F800204A
:1062E0000000012000000120EC3C0300F8A5002084
:1062F00028A60020D0630200D0630200AE3703005E
:10630000EC3C0300F8A50020F8A500202438030089
:106310002438030024380300243803002438030001
:10632000243803002438030024380300EC3C030025
:106330001C3D030028A6002028A6002028A6002037
:1063400070F3002070F3002070F3002070F3002041
:1063500070F500209D63020011280300FEE7FEE7B0
:10636000FEE7FEE7FEE7FEE7FEE7FEE7FEE7FEE705
:1063700000F002B8FFF7FCBF0F484FF00701884359
:1063800085460E4880470E48016841F4700101605F
:10639000BFF34F8FBFF36F8FFFF732BF09480A4932
:1063A0000A4A884207D0521A05D0037801300B7090
:1063B0000131013AF9D170470000012091700200CB
:1063C00088ED00E024380300F8A50020F8A500209F
:1063D0001FB50021039001AA44F20100CDE901118B
:1063E00009F0A4FF05B05DF804FB00004B1C30B5BC
:1063F000DB00044612F003009BB20FD1084D2A6067
:106400001A44084B1A60084B1870084B1870084B58
:106410001C80084B1980084B188030BD0720FCE712
:1064200030A600202CA600202AA6002038A6002096
:1064300034A6002036A6002028A60020074B084AD4
:106440001B7812881846074B1B78984284BF511C52
:106450005B181B1A9BB2D01A80B2704738A6002076
:1064600036A600202AA600202DE9F743334F3B88AB
:106470008B4205460C4616465BD34FF000080DF1E3
:1064800007008DF8078000F06DFADFF8C8C02C48CF
:106490002C499CF80030098890F800E08E455FFA9E
:1064A0008EF238BF02F10108DBB238BF5FFA88F81C
:1064B000434537D090F8008003789942DAB286BF1E
:1064C0000132D2B2002202709CF800301A460378E2
:1064D0009A4284BF01315B189B1A1B4A11889BB2F8
:1064E000994200D213809DF8070000F05FFA4FF642
:1064F000FF7398451FD0154B1B6843F8386003EBBA
:10650000C80995B18CB1124B38881B6822462946C0
:1065100008FB00300DF0EFF8A9F80440002003B0AC
:10652000BDE8F0834FF6FF78DDE70020A9F804000E
:10653000F5E70920F3E70420F1E700BF34A60020C7
:106540002AA6002036A6002028A6002030A600207B
:106550002CA6002038A6002007B500230DF1070067
:106560008DF8073000F0FEF9064A9DF80700136821
:10657000591C1CBF0133136000F018FA03B05DF81A
:1065800004FB00BF3CA6002007B500230DF1070067
:106590008DF8073000F0E6F9054A13680BB1013BAE
:1065A00013609DF8070000F001FA03B05DF804FBEA
:1065B0003CA60020F8B5124E124C356825B9124B96
:1065C00022781B789A4200D1F8BD1048104B2278EF
:1065D0001B6807880F4803EBC201006853F832308C
:1065E000898802FB070098470B4922780988D3B2B3
:1065F000914286BF0133DBB22B462370DDE700BF3B
:106600003CA6002038A600202AA6002034A60020A0
:1066100030A600202CA6002036A6002010B5D0E918
:106620000243D1E90202A04272EB03032CBF012016
:10663000002010BD08B50A4800F0EDFA094AD2E979
:106640000031C018084BD3E9002341F1000190420A
:1066500071EB030303D210F1807041F1000108BD1A
:10666000F8A5002048A60020C0A6002037B50546A2
:106670000C460A4801A900F002FB60B105704460B5
:1066800001A9064800F025FB18B1054800F0C8FA3A
:10669000002003B030BD0420FBE700BFACA6002003
:1066A000F8A5002038B5184B1B78044613B900250F
:1066B000284638BD0028FAD0037F03F0FF05002BE1
:1066C000F5D0FFF7B7FFD4E90223904271EB030343
:1066D00014D3236903B92377D4E905309847216996
:1066E0000029E4D0237F03F0FF05002BDFD0D4E99D
:1066F00002325B1842F10002C4E90232034821462B
:1067000000F07DFCD4E700BF50A60020283803002D
:1067100013B5114B114918680190082310485822ED
:1067200000F09AFA044698B90E4A0F4801A900F001
:106730007BF9044660B90C48012100F04FFA0123AF
:106740000A4A0948194600F0B1F9094B01221A70AA
:10675000204602B010BD00BF2438030054A600201C
:10676000ACA60020D5670200F8A50020FFFF7F003F
:1067700050A600203AB103685A614A1E5142514165
:106780001961002070470720704738B5037F044621
:106790000D4683B98261FFF74DFF2369281841F147
:1067A0000001C4E9020103B1256121460020BDE8D2
:1067B0003840FFF75BBF002038BD00230146037758
:1067C0000120FFF753BF0000014800F024BA00BFCA
:1067D000F8A500202DE9F347064600F007FA40B17E
:1067E000584AD2E9003113F1807341F10001C2E946
:1067F00000310021304600F008FA38B1524C2368CD
:1068000023B12068FFF74EFF0023236001213046AB
:1068100000F0FBF920B1FFF70DFF4C4BC3E900017D
:106820004B48494D4B4C4C4F01A900F062FA0028EF
:1068300042D1DFF82081444CDFF82491404600F03B
:10684000F4FB2368002872D07BB12368D0E90252A0
:10685000D3E902138D4272EB03032AD223681B7F14
:106860001BB12168404600F0CAFB404600F0D7FB50
:10687000D0E9027A0546FFF7DDFE381A6AEB010A15
:1068800001287AF1000345DBB0F5350F40D3FFF75F
:106890009BFF324A02444FF496030021484600F021
:1068A00025F900283ED1236813B9304600F0F6F8E8
:1068B000256002B0BDE8F0870378012B1DD0022BC4
:1068C00009D14FF00008204600F0A9FB002836D07F
:1068D00080F81C80F7E73BB941680B7F23B901239F
:1068E0000B77204600F08BFB01A9194800F02CFA29
:1068F00001A9174800F0FDF999E741682B68994212
:1069000002D100232B60EFE7204600F091FBEBE77C
:10691000AA68C0E70021484600F06DF92846FFF755
:10692000C1FE01E00D28F9D00023236086E7002B8B
:10693000BFD1304602B0BDE8F04700F0B3B8012344
:106940003B70D1E748A60020C8A60020C0A60020C2
:10695000ACA600202838030050A60020FFFFB4009A
:10696000F8A5002070B5EFF3108672B60C4A946853
:1069700001239CB993600B4B0B4DD3F88010294039
:106980001160C3F88050D3F8841051604FF0FF328B
:10699000C3F88420047006B962B670BD0370FAE7CC
:1069A000CCA6002000E100E0FC06FFBD084B9A6881
:1069B00010B55AB150B9EFF3108172B6054A1C6890
:1069C00014605C685460986001B962B610BD00BF85
:1069D000CCA6002000E100E003462AB110881A4648
:1069E00019448A4203D170474FF6FF70F7E712F857
:1069F000013B40BA80B25840C0F30313584080EACC
:106A00000033580100F4FF509BB25840E9E7435867
:106A100082B03BB10023435043580193019B0120B6
:106A200002B070471846FBE770B5184C4379184D13
:106A300044F8232005EBC3031B792BBB03680A88AA
:106A4000C3F8082590F904408B7802795B01002C8B
:106A5000DBB214DB0F490E1986F8003301236409F9
:106A600002F01F0203FA02F241F82420437905EBF9
:106A7000C302012145F833001171002070BD0649A1
:106A800002F00F028B54F1E70820F7E7E0A60020A0
:106A9000D8A6002000E100E014ED00E00368012228
:106AA0001A607047036801225A60704773B501F19C
:106AB0005005AD000068ADB24FF480348C40002624
:106AC000C0F80843C0F84843465101F5A87145593C
:106AD000019522F07F42019D40F82120C0F84443F7
:106AE0000BB1C0F8044302B070BD00002DE9F74FB0
:106AF0000D4622F07F4402684FF4803705F15006BE
:106B00008F408046B60002EB8500C2F84873B6B2EB
:106B1000C2F80873D2F8041599464FF0000BD0F86C
:106B20004035C0F8401542F806B05B1A9259009201
:106B300023F07F43012B009A4FEA850A0CD1264BA4
:106B40004FF4806043F001039847D8F8003043F8D1
:106B500006B09B590193019BD8F80010D1F8046549
:106B6000C1F84473A31B23F07F43012B1CD11A4BA4
:106B700005F5A875013443F0010341F825404FF4B1
:106B800080609847D8F80030D3F804359E4209D188
:106B9000D8F800300020C3F84473C3F8047303B07E
:106BA000BDE8F08F0D20FAE78A44C9F1FF13CAF857
:106BB0004045D1F80405221A013A22F07F4203F53C
:106BC0007F439342EED3002AE2D10134CAF8404514
:106BD000D1F804359842DAE740380300036802220E
:106BE000C3F8442309B1C3F80423704700684FF485
:106BF0008271FFF70CBF4FF4803303FA01F1036891
:106C0000C3F84813C3F8081370475031890000686F
:106C100089B2FFF7FCBE0368D3F804057047000093
:106C200090F90430002B09DB5A09012103F01F03FE
:106C300001FA03F34032024941F82230704700BFA5
:106C400000E100E0024B034A1B681068184700BFD0
:106C5000E0A60020D8A6002010B561B1B2FBF3F485
:106C600003FB1424A4B244B9C0E9001484608281F7
:106C7000C381204610BD0E20FCE70920FAE737B596
:106C800050E8013F9DB2C48925448489A54228BFAC
:106C90002D1B0489A54202BFBFF32F8F002207E0FE
:106CA000C5EA030540E80154002CE9D14FF0010288
:106CB0008DF803200193019A0A609DF8031001F0FA
:106CC000FF0321B1006810FA82F003B030BD18460E
:106CD000FBE70A884B889A4209D150E8012FC2EAA3
:106CE000024240E80123002BF7D101207047002029
:106CF000704737B550E8023F1FFAA3F5C488A54294
:106D000002BFBFF32F8F00220DE0C4892544848980
:106D1000A54228BF2D1BC3EA054540E80254002CBC
:106D2000E8D14FF001028DF803200193019A0A6027
:106D30009DF8031001F0FF0321B1006800EB124041
:106D400003B030BD1846FBE70A884B889A4209D148
:106D500050E8022FC2EA224240E80223002BF7D17A
:106D6000012070470020704710B590B1D0E9012391
:106D700001689B1ADBB20A60013BDBB2FF2B0268A1
:106D800002D10020107110BD11684C1C14600B70F2
:106D9000F2E70E20F7E737B5054600240DF10700AE
:106DA0008DF80740FFF7DEFD2A686B68116899428D
:106DB0000ED9481E106011F8013CEC68298A01FBCD
:106DC0000344AB6811791B1ADBB2994238BF1371C7
:106DD0009DF80700FFF7EAFD204603B030BD37B548
:106DE000054600230DF107000C468DF80730FFF72C
:106DF000B9FD2A681368591C1160E968641A298A68
:106E0000B4FBF1F41C709DF80700FFF7CFFD03B051
:106E100030BD026813685268934291BFD01A8068EF
:106E20000130801888BFC01A7047036881681A68EB
:106E30005B688B4234BF01330023D31A5842584158
:106E4000704773B5002304460DF107000D468DF819
:106E50000730FFF787FD2046FFF7E7FF10B1237CDF
:106E6000002B3BD12368A1685E685A688A4234BF10
:106E7000013200225A6028B11A688A4234BF0132B6
:106E800000221A60E2686368511E072920D8DFE8F3
:106E900001F004101F141F1F1F182A789A5520464E
:106EA000FFF7B7FF23689A68824200D298600024F7
:106EB00015E02A8823F81620F1E72A6843F82620EF
:106EC000EDE7D5E9000103EBC603C3E90001E6E7FE
:106ED000294606FB02300CF00EFCE0E704249DF886
:106EE0000700FFF763FD204602B070BD37B50546C9
:106EF00000240DF107008DF80740FFF733FD2B68E4
:106F00001C609DF807005C609C60FFF74FFD03B0BC
:106F100030BD13B5002304460DF107008DF807308E
:106F2000FFF720FD2046FFF774FF04469DF8070099
:106F3000FFF73CFD204602B010BD036818685B688F
:106F4000C31A58425841704773B5002305460DF1E6
:106F500007000C4616468DF80730FFF703FD28465C
:106F6000FFF7EBFF002832D12B6819682EB91A6899
:106F7000A868824238BF561C1E60EA686B68501EC3
:106F800007281ED8DFE800F0040E1D121D1D1D1677
:106F90005B5C237000249DF80700FFF707FD204687
:106FA00002B070BD33F811302380F3E753F821307D
:106FB0002360EFE703EBC103D3E90023C4E9002317
:106FC000E8E701FB023120460CF095FBE2E70524DF
:106FD000E1E70B684A684360934208BF0023016001
:106FE00008BF43607047436843B1026891685268C4
:106FF0000B449342436004BF00234360704770B565
:10700000446806460D46206818B1B368294698477B
:1070100018B923682B60256070BD2468F3E74368C6
:10702000186808B102681A607047436818687047AA
:107030004368186800B97047884203D102681A6033
:107040000120704703460068F4E74FF08053D3F8FF
:107050003001421C04BF4FF0704393F8E00F831FD0
:1070600058425841704700004FF0704393F8E02FAA
:10707000062A09D1D3F8E83FC3F30313033B032BDC
:1070800002D8024AD05C7047002070474E38030097
:1070900008B5FFF7DAFF40B14FF080538F4AD3F8BD
:1070A0002433C3F30423C2F84035FFF7DDFF10B1EA
:1070B0008B4B8C4A5A67FFF7C8FF48B14FF080539B
:1070C0004FF08042D3F84432C3F34233C2F83C3528
:1070D000FFF7CAFF30B1844AD2F8FC3023F0807346
:1070E000C2F8FC30FFF7B1FF40B14FF080430022FF
:1070F000C3F80C21C3F81021C3F83825FFF7B4FFFB
:1071000020B14FF080430322C3F8A025FFF7ACFF66
:1071100060B1764B0522C3F810260122C3F88826F9
:107120000022C3F818263F22C3F814264FF08053DC
:10713000D3F83021511C09BF4FF07043D3F83431DC
:1071400093F8E02FD3F8E83F08BFC3F30313062AF0
:107150004DD1033B032B03D8654AD35C002B46D0AB
:107160004FF08052634BD2F80414C3F82015D2F8C4
:107170000814C3F82415D2F80C14C3F82815D2F853
:107180001014C3F82C15D2F81414C3F83015D2F823
:107190001814C3F83415D2F81C14C3F84015D2F8EB
:1071A0002014C3F84415D2F82414C3F84815D2F8B3
:1071B0002814C3F84C15D2F82C14C3F85015D2F883
:1071C0003014C3F85415D2F83414C3F86015D2F84B
:1071D0003814C3F86415D2F83C14C3F86815D2F813
:1071E0004014C3F86C15D2F84424C3F87025FFF797
:1071F0002CFF48B14FF080534FF08042D3F8583203
:1072000003F04F03C2F8E43EFFF71FFF48B14FF011
:107210008043D3F80024D20744BF6FF00102C3F8C3
:1072200000244FF08053D3F83021062A0ED1D3F832
:107230003431033B032B02D82F4AD35C33B12F4A9E
:10724000D2F83C3743F48063C2F83C37264AD2F880
:10725000883043F47003C2F88830BFF34F8FBFF318
:107260006F8F4FF01023D3F80022002A03DBD3F8EE
:107270000432002B2EDA224B0122C3F80425D3F866
:107280000024002AFBD04FF010221521C2F8001272
:10729000D3F80024002AFBD04FF010231522C3F8A6
:1072A0000422174BD3F80024002AFBD00022C3F895
:1072B0000425D3F80024002AFBD0BFF34F8F0A49DE
:1072C000104BCA6802F4E0621343CB60BFF34F8FE8
:1072D00000BFFDE70C4B0D4A1A6008BD00300140AD
:1072E00000C007400DF0ADBA00ED00E000500040D6
:1072F0004638030000C000404A3803000010004038
:1073000000E001400400FA0500A600200090D00330
:1073100038B5054D044645F001054FF47A40A847BD
:10732000013CFAD138BD00BF603803004FF0A043E4
:1073300040F20F62C3F85827C3F86027C3F85C27F0
:107340004FF48002C3F80C254FF40002C3F80C255B
:1073500070472DE9F0414FF0A0444FF48003C4F88A
:107360000C3506460A20FFF7D3FF4FF40003C4F89C
:107370000C350A20FFF7CCFF05254FF0807846FA40
:1073800005F3DB074CBFC4F80885C4F80C8505205D
:107390004FF40007FFF7BCFF0520C4F80875FFF79E
:1073A000B7FFC4F80C750520FFF7B2FF013DE6D228
:1073B0004FF48005C4F808550A20FFF7A9FFC4F868
:1073C0000C550A20BDE8F041FFF7A2BF08B5FFF752
:1073D000ADFF0020BDE80840FFF7BBBF40B149B199
:1073E0000378602B06D101290CBF002009207047CB
:1073F0000E2070470720704713460A46014660205A
:1074000006F0E3BC7FB50C461E46054610B90E20BB
:1074100004B070BDF9B10378682B1CD1012303932C
:10742000002AF4D0002EF2D03368002BEFD01346A0
:1074300003AA06F0FAFC0028EAD10090334603AA1A
:107440002146284607F011F80028E1D1039B9C4211
:1074500018BF0920DCE70720DAE70000F0B587B0A5
:1074600015460C9E039002930C4609B90E201AE0B3
:10747000002AFBD000230593682312688DF813308F
:107480000DF1130005AB019206F009FD58B9019A00
:1074900005AB214603A806F0AEFC20B9039B019A78
:1074A0001BB1059B2B6007B0F0BD002EDED005ABF5
:1074B000214602A8019206F09EFC0028F3D1029B0F
:1074C000242BD3D81F2B019A05D8012B0AD0022BCD
:1074D000CCD10D4F07E0213B032B0BD8DFE803F0A5
:1074E0000C0E1210094F05AB21463046B847002854
:1074F000D7D0D8E7064FF6E7064FF4E7064FF2E796
:10750000064FF0E7064FEEE749E302002FE20200E4
:1075100039A9020095A9020015AA0200F9AB0200E0
:1075200075AD02002DE9FF410F4690461D46064607
:1075300008B90E244CE000294ED00378672B4BD1BC
:1075400001230393002AF4D0002DF2D02B68002BE6
:10755000EFD0134603AA06F068FC0446002837D192
:1075600000902B4603AA3946304606F07EFF0446BB
:1075700000282DD12B683BB3D8F80020252AD8D875
:107580001F2A05D8012A0BD0022AD2D1134D08E0B8
:10759000213A042A0CD8DFE802F00D0F1311150070
:1075A0000F4D03AA39463046A84768B104460FE09C
:1075B0000C4DF6E70C4DF4E70C4DF2E70C4DF0E7FF
:1075C0000C4DEEE70C4DECE7039B9F4218BF0924DE
:1075D000204604B0BDE8F0810724F9E76BE3020020
:1075E00087E2020065A90200D5A9020035AA0200BF
:1075F00027AC020097AD0200BFAD020013460A4659
:107600000146672006F0E1BB7FB50C461E460546E5
:1076100010B90E2004B070BD01B30378662B1DD1E4
:1076200001230393002AF4D0002EF2D03368002BFC
:10763000EFD0134603AA06F01CFC0028EAD1084B41
:10764000009303AA33462146284606F00EFF002881
:10765000E0D1039BA34218BF0920DBE70720D9E74D
:10766000DFE2020013460A460146662006F0ADBB83
:107670007FB50C460546C0B1C9B10678632E16D158
:107680000126009203AA039606F00AFD58B900905D
:10769000089B03AA2146284606F0E7FE18B9039B7B
:1076A000A34218BF092004B070BD0E20FBE70720DD
:1076B000F9E7000070B586B0144603901E460D46EB
:1076C00029B322B300230593632312688DF8133086
:1076D0000DF1130005AB029206F0E1FBA8B9029A86
:1076E00005AB294603A806F086FB70B9DDE9022345
:1076F00013B1059B236008E0064B0093294605ABB8
:10770000304606F094FE0028F3D006B070BD0E207F
:10771000FBE700BF9FE10200F0B585B00C460A9F71
:107720001E46054610B90E2005B0F0BD002933D025
:107730000378642B30D101230393002AF3D0002E69
:10774000F1D0002FEFD01368002BECD03368002B62
:10775000E9D03B68002BE6D0104B0093134603AAF8
:1077600006F083FE0028DFD10023009303AA3346EE
:107770002146284606F079FE0028D5D100903B46E8
:1077800003AA2146284606F070FE0028CCD1039BB0
:107790009C4218BF0920C7E70720C5E7CDE10200DA
:1077A0002DE9F04387B01646DDF8389003908DF848
:1077B0000B300D4600293BD0002A39D01768002332
:1077C00005930DF1140864238DF813303A464346AF
:1077D0000DF1130006F063FB044658B943463A46E0
:1077E000294603A806F007FB044618B9039B2BB1F2
:1077F000059B3360204607B0BDE8F08343463A4618
:1078000029460DF10B0006F04AFB04460028F1D191
:10781000B9F1000FECD09DF80B10CDF800803B467D
:107820002A46484606F066FC0028E1D00446E1E717
:107830000E24DFE77FB50C461E46054610B90E2024
:1078400004B070BD21B30378622B21D101230393CF
:10785000002AF4D0002EF2D01368002BEFD033684A
:10786000002BECD00B4B0093134603AA06F0FDFD52
:107870000028E5D10090334603AA2146284606F0A9
:10788000F4FD0028DCD1039B9C4218BF0920D7E7F8
:107890000720D5E717E2020070B586B014460390C2
:1078A0001E460D4629B322B30023059362231268B6
:1078B0008DF813300DF1130005AB029206F0EFFACC
:1078C000A8B9029A05AB294603A806F094FA70B944
:1078D000DDE9022313B1059B236008E0064B00930A
:1078E000294605AB304606F0A2FD0028F3D006B0CD
:1078F00070BD0E20FBE700BF9FDE02001FB50C46E7
:1079000010B90E2004B010BDB1B10378652B13D1AE
:1079100001230393002AF4D01368002BF1D0002335
:107920000093134603AA06F0A0FD0028EAD1039BAA
:107930009C4218BF0920E5E70720E3E77FB514461E
:1079400001901E460D4611B90E2004B070BD002AEC
:10795000FAD000230393652312688DF80B300DF1E4
:107960000B0003AB009206F09AFA0028EDD1009AC2
:1079700003AB294601A806F03EFA0028E5D1DDE96F
:10798000002313B1039B2360DFE7002EDCD003ABA1
:107990002946304606F0BAFC0028F3D0D5E713B5E7
:1079A00010B90E2002B010BD59B10378672B08D171
:1079B00001230193002AF4D0134601AA06F035FAF8
:1079C000F0E70720EEE700002DE9FF418846144666
:1079D0001E46074620B90E25284604B0BDE8F081B2
:1079E00000296BD00378692B68D1012303931346D8
:1079F00003AA06F01AFA05460028EDD10090334696
:107A000003AA4146384606F030FD05460028E3D17A
:107A1000336823B9039B434518BF0925DCE7226877
:107A2000242A1DD81F2A12D8012A32D0044606461D
:107A3000203A032A39D9002ECDD0002CCBD02346B2
:107A400003AA41463846B0470028E3D034E0A2F10B
:107A500021019C1C032912D8DFE801F01315171926
:107A6000A02A1FD006D8402A16D0412A17D00024B9
:107A70002646DDE7A12AFAD1114E1C46D8E7114E61
:107A8000D6E7114ED4E7114ED2E7114ED0E7114E92
:107A9000CEE7114E1C46CBE7104E1C46C8E7104EF1
:107AA0001C46C5E70F4E1C46C2E703AA41463846AE
:107AB00006F002FA0028BED005468DE707258BE7C1
:107AC000B5D40200F9AD0200B9C1020079D40200B8
:107AD0008DB00200E9DC020093E3020027AE020051
:107AE00055AC02008DD4020013460A4601466920B7
:107AF00006F06BB973B50D4614460646D8B1D2B13F
:107B000000230193531C01AA06F0D6F988B9234635
:107B100001AA2946304606F0CFF950B9631D01AAE3
:107B20002946304606F0C8F918B9019B9D4218BF96
:107B3000092002B070BD0E20FBE71FB5144601906E
:107B400061B15AB100230393126803AB01A806F098
:107B500052F908B9039B236004B010BD0E20FBE767
:107B600010B4002A00F06281002B00F05F81002831
:107B700000F05C810488013C762C00F25181DFE842
:107B800014F07B0077004F014F014F014F014F016F
:107B90004F014F014F014F014F014F014F014F0165
:107BA000AB00A7007F0087008B009300B300970015
:107BB000B7008F009B00A3009F004701AF00830028
:107BC0004B01BF00BB00CB00CF00C300C7004F017B
:107BD0004F014F014F014F014F014F014F014F0125
:107BE000DF00F300D300D700FB00DB00E700F70065
:107BF000EF00E300FF00EB0003014F014F014F01D5
:107C00004F014F014F014F014F014F014F014F01F4
:107C10004F014F014F014F014F014F014F014F01E4
:107C2000130117011B0107010F011F010B012301A4
:107C30004F014F014F014F014F014F014F014F01C4
:107C40004F014F014F014F014F014F014F014F01B4
:107C50004F014F014F014F014F014F014F014F01A4
:107C600027012B012F01330137013B013F01430164
:107C70005DF8044B00F0DCB85DF8044B00F01EB971
:107C80005DF8044B01F0F4BB5DF8044B01F024BC3B
:107C90005DF8044B01F064BE5DF8044B01F02CBEAE
:107CA0005DF8044B01F08CBB5DF8044B01F066BD40
:107CB0005DF8044B01F054BB5DF8044B01F040BC8F
:107CC0005DF8044B01F09BBD5DF8044B01F0B0BEC4
:107CD0005DF8044B01F09CBC5DF8044B01F064BC02
:107CE0005DF8044B01F070BE5DF8044B01F0D6BCAA
:107CF0005DF8044B01F002BD5DF8044B01F0E0BEFD
:107D00005DF8044B01F01CBF5DF8044B01F0E8BFC7
:107D10005DF8044B01F0B0BF5DF8044B01F044BFC7
:107D20005DF8044B01F074BF5DF8044B03F016BC22
:107D30005DF8044B03F0E4BC5DF8044B03F054BC65
:107D40005DF8044B03F068BD5DF8044B03F01EBD05
:107D50005DF8044B03F0A6BD5DF8044B03F02EBEA6
:107D60005DF8044B03F070BE5DF8044B03F0E0BD1A
:107D70005DF8044B03F07EBC5DF8044B03F0A8BB38
:107D80005DF8044B03F0A6BE5DF8044B03F0E8BEBB
:107D90005DF8044B04F024BF5DF8044B04F0ACBF65
:107DA0005DF8044B04F04EBF5DF8044B04F0D6BF01
:107DB0005DF8044B04F0B6BE5DF8044B04F06ABFF6
:107DC0005DF8044B05F026B85DF8044B05F054B897
:107DD0005DF8044B05F048BD5DF8044B05F082BD2D
:107DE0005DF8044B05F0BCBD5DF8044B05F0EEBD3D
:107DF0005DF8044B05F018BE5DF8044B05F062BE5B
:107E00005DF8044B05F094BE5DF8044B05F0F8BE38
:107E10005DF8044B01F06ABA5DF8044B01F026BD31
:107E200000221A6006205DF8044B70470E20FAE726
:107E300030B5114687B01C46054600283AD0002AC6
:107E400038D0002B36D00388022B35D10022059282
:107E50002268ADF812300DF1120005ABCDE9021227
:107E600005F0F6FF20BBDDE9021205AB281D05F089
:107E7000EFFFE8B9DDE9021205AB05F1080006F0F5
:107E80000EF8A8B9DDE9021205AB05F1100005F006
:107E9000DFFF68B90090DDE90212E86805AB06F083
:107EA000C6FA28B9A88806F057FC08B9059B2360D4
:107EB00007B030BD0E20FBE70720F9E730B51146CB
:107EC00085B01D46044620B31AB313B30388012BB3
:107ED00021D1002203922A68ADF80A300DF10A0080
:107EE00003ABCDE9001205F0B3FF80B9DDE9001264
:107EF00003AB201D05F0ACFF48B9DDE9001203AB70
:107F000004F1080005F0CBFF08B9039B2B6005B016
:107F100030BD0E20FBE70720F9E773B50C461E467F
:107F20000546B8B1C1B10378732B15D10123019374
:107F3000134601AA05F0C0FF50B9334601AA2146F5
:107F4000284605F0B9FF18B9019BA34218BF0920C4
:107F500002B070BD0E20FBE70720F9E713460A4682
:107F60000146732005F031BF37B513460C4678B192
:107F700081B10278742A0DD10122019201AA05F083
:107F80009BFF18B9019B9C4218BF092003B030BD6C
:107F90000E20FBE70720F9E713460A460146742046
:107FA00005F013BF1FB50C4610B90E2004B010BD6C
:107FB000B1B10378792B13D101230393002AF4D0B4
:107FC0001368002BF1D000230093134603AA06F098
:107FD0004CFA0028EAD1039B9C4218BF0920E5E730
:107FE0000720E3E770B586B0144603901E460D46A1
:107FF00029B322B300230593792312688DF8133037
:108000000DF1130005AB029205F049FFA8B9029AE1
:1080100005AB294603A805F0EEFE70B9DDE90223A1
:1080200013B1059B236008E0064B0093294605AB7E
:10803000304606F0FCF90028F3D006B070BD0E20E3
:10804000FBE700BF51DE020013B50C4610B90E204D
:1080500002B010BD89B10378782B0ED101230193B2
:10806000002AF4D0134601AA05F003FF0028EFD13F
:10807000019BA34218BF0920EAE70720E8E713465F
:108080000A460146782005F0A0BE00007FB50C46E8
:108090001E46054610B90E2004B070BD09B9072070
:1080A000FAE70378802BFAD101230393002AF2D058
:1080B000002EF0D0134603AA05F0DBFE0028EBD11A
:1080C000334603AA2146284605F0F6FE0028E3D1F0
:1080D0003378022BE3D8084AD35C2146CDE900333C
:1080E00003AA089B284605F0A6FF0028D4D1039BCD
:1080F0009C4218BF0920CFE76638030013460A46A2
:108100000146802005F061BE7FB50C461E4605463F
:1081100010B90E2004B070BD01B303787E2B1DD1C1
:1081200001230393002AF4D0002EF2D03368002BF1
:10813000EFD0134603AA05F09CFE0028EAD1084BB5
:10814000009303AA33462146284606F08EF90028FC
:10815000E0D1039BA34218BF0920DBE70720D9E742
:10816000F1A0020013460A4601467E2005F02DBE0E
:108170007FB50C461E46054610B90E2004B070BDF2
:1081800001B30378752B1DD101230393002AF4D08A
:10819000002EF2D03368002BEFD0134603AA05F06F
:1081A00068FE0028EAD1084B009303AA3346214613
:1081B000284606F05AF90028E0D1039BA34218BFD5
:1081C0000920DBE70720D9E7D3A1020013460A46BE
:1081D0000146752005F0F9BD7FB50C461E460546E3
:1081E00010B90E2004B070BDD1B10378872B17D120
:1081F00001230393002AF4D0134603AA05F039FEA5
:108200000028EFD10090334603AA2146284606F005
:108210002CF90028E6D1039BA34218BF0920E1E70F
:108220000720DFE730B589B00D4605901C461146A2
:108230002AB323B300232268079387238DF81B30CA
:108240000DF11B0007ABCDE9031205F028FEA0B924
:10825000DDE9031207AB05A805F0CDFD68B903A958
:108260000EC913B1079B236007E0064B0093284615
:1082700007AB06F0DCF80028F4D009B030BD0E20C2
:10828000FBE700BF459F0200F0B50C4685B01646DF
:10829000054610B90E2005B0F0BDD9B107787D2F85
:1082A00018D101270397002BF4D00B4A009203AAA0
:1082B00006F0DBF80028EED10090334603AA2146F1
:1082C000284606F0D2F80028E5D1039BA34218BF48
:1082D0000920E0E70720DEE773DE02002DE9F04722
:1082E00086B0DDE90E4503900F469146984694B35B
:1082F0008DB300232E6805930DF1140A7D238DF8AC
:1083000013303246534621460DF1130005F0C7FDE8
:10831000F0B953463246214603A805F06CFDB8B9C2
:10832000039A12B1059B2B6012E00C4B009332466E
:1083300053462146484606F07AF848B9CDF800A0E1
:10834000334622464146384605F05DFE0028E9D016
:1083500006B0BDE8F0870E20FAE700BF51DE02004C
:10836000F0B585B00C460A9F1E46054610B90E2092
:1083700005B0F0BD01B303787C2B1DD1012303931D
:10838000002AF4D0002EF2D0002FF0D00B4B009337
:10839000134603AA06F069F80028E9D1009733468E
:1083A00003AA2146284605F092FE0028E0D1039B4F
:1083B000A34218BF0920DBE70720D9E7CDA00200C0
:1083C00013460A4601467C2005F0FFBC73B50C46F7
:1083D0001E46054610B90E2002B070BDD9B1037813
:1083E000762B18D101230193002AF4D0002EF2D06D
:1083F000134601AA05F03DFD0028EDD1334601AA40
:108400002146284605F058FD0028E5D1019BA342EE
:1084100018BF0920E0E70720DEE713460A460146B9
:10842000762005F0D2BC0000F0B585B00C460A9F5E
:108430001E46054610B90E2005B0F0BD00292FD00C
:108440000378852B2CD101230393002AF3D0002F2E
:10845000F1D0002EEFD03B68002BECD03368002B1E
:10846000E9D0134603AA05F004FD0028E4D10D4B22
:10847000009303AA33462146284605F0F6FF00285C
:10848000DAD1094B009303AA3B462146284605F062
:10849000ECFF0028D0D1039B9C4218BF0920CBE7FA
:1084A0000720C9E7D1A302007BA3020013460A46B6
:1084B0000146852005F089BC73B50C461E4605466D
:1084C00010B90E2002B070BDD9B10378822B18D13B
:1084D00001230193002AF4D0002EF2D0134601AA02
:1084E00005F0C7FC0028EDD1334601AA21462846F5
:1084F00005F0E2FC0028E5D1019BA34218BF09204A
:10850000E0E70720DEE713460A460146822005F031
:108510005CBC00007FB50C461E46054610B90E2017
:1085200004B070BDE9B10378812B1AD10123039304
:10853000002AF4D0002EF2D0134603AA05F099FCCD
:108540000028EDD1084B009303AA33462146284664
:1085500005F08BFF0028E3D1039BA34218BF09203D
:10856000DEE70720DCE700BF4FAA020013460A46F9
:108570000146812005F029BCF0B585B00C460A9F64
:108580001E46054610B90E2005B0F0BD41B3037874
:10859000832B25D101230393002AF4D0002FF2D09E
:1085A000002EF0D0134603AA05F063FC0028EBD19F
:1085B0000C4B009303AA33462146284605F055FF8D
:1085C0000028E1D100903B4603AA2146284605F049
:1085D0004CFF0028D8D1039BA34218BF0920D3E742
:1085E0000720D1E7FFA3020030B589B00D46059002
:1085F0001C4611462AB323B3002322680793832322
:108600008DF81B300DF11B0007ABCDE9031205F00F
:1086100046FCA0B9DDE9031207AB05A805F0EBFBAA
:1086200068B903A90EC913B1079B236007E0064B85
:108630000093284607AB05F0FAFE0028F4D009B0F5
:1086400030BD0E20FBE700BF69AA02002DE9FF4103
:108650000A9F0C461E46054618B90E2004B0BDE818
:10866000F08159B30378842B28D101230393002A86
:10867000F3D0002EF1D0002FEFD0134603AA05F05F
:10868000F8FB0028EAD1DFF83880CDF800803346C7
:1086900003AA2146284605F0E8FE0028DED1CDF8E1
:1086A00000803B4603AA2146284605F0DEFE00284E
:1086B000D4D1039BA34218BF0920CFE70720CDE701
:1086C000B5AA020013460A460146842005F07DBB88
:1086D0001FB50C4610B90E2004B010BDC1B103780F
:1086E0007B2B15D101230393002AF4D01368002BB0
:1086F000F1D001290AD000230093134603AA05F004
:10870000B4FE0028E8D1039B9C42E5D00920E3E7B2
:108710000720E1E770B586B0144603901E460D466B
:1087200029B322B3002305937B2312688DF81330FD
:108730000DF1130005AB029205F0B1FBA8B9029A46
:1087400005AB294603A805F056FB70B9DDE9022305
:1087500013B1059B236008E0064B0093294605AB47
:10876000304605F064FE0028F3D006B070BD0E2040
:10877000FBE700BF29A002001FB50C4610B90E2070
:1087800004B010BD99B103787A2B10D10123039363
:10879000002AF4D0074B0093134603AA05F065FEA8
:1087A0000028EDD1039BA34218BF0920E8E707206A
:1087B000E6E700BFD3A1020013460A4601467A202D
:1087C00005F003BBF0B585B00C460A9F1E46054672
:1087D00010B90E2005B0F0BD00292ED003788E2BE5
:1087E0002BD101230393002AF3D0002EF1D033685C
:1087F000002BEED0134603AA05F03BFB0028E9D17D
:108800000090334603AA2146284605F02EFE002894
:10881000E0D1002FDDD03B68002BDAD0002300939D
:1088200003AA3B462146284605F01FFE0028D1D169
:10883000039B9C4218BF0920CCE70720CAE7000031
:10884000F0B587B0144603901E460D4600292FD080
:10885000002A2DD0002305938E2312688DF8133043
:108860000DF1130005AB029205F019FBF0B9029A65
:1088700005AB294603A805F0BEFAB8B9DDE9022325
:1088800013B1059B236011E00A4F009705AB294601
:108890003046029205F0CBFD40B9029A0C98009741
:1088A00005AB294605F0C3FD0028EAD007B0F0BDAE
:1088B0000E20FBE79FDE0200F7B5089F0C461E4620
:1088C000054610B90E2003B0F0BD29B30378882BFC
:1088D00022D101230193002AF4D0002EF2D0002FE0
:1088E000F0D0134601AA05F0C4FA0028EBD13346B4
:1088F00001AA2146284605F0DFFA0028E3D13B46CD
:1089000001AA2146284605F0D7FA0028DBD1019BB1
:10891000A34218BF0920D6E70720D4E713460A462A
:108920000146882005F051BA13B50C4610B90E2047
:1089300002B010BD89B10378892B0ED101230193B8
:10894000002AF4D0134601AA05F093FA0028EFD1CB
:10895000019BA34218BF0920EAE70720E8E7134676
:108960000A460146892005F030BA00007FB50C4662
:108970001E46054610B90E2004B070BD01B3037841
:108980008A2B1DD101230393002AF4D01368002BF6
:10899000F1D00C4B0093134603AA05F066FD0028A6
:1089A000EAD1094B009303AA33462146284605F035
:1089B0005CFD0028E0D1039BA34218BF0920DBE740
:1089C0000720D9E709A80200E9E3020001468A204E
:1089D00005F0FBB913460A4601468B2005F0F5B9B0
:1089E000F0B585B00C460A9F1E46054610B90E200C
:1089F00005B0F0BD00293CD003788C2B39D1012380
:108A00000393002AF3D01368002BF0D0002EEED091
:108A10003368002BEBD0002FE9D03B68002BE6D069
:108A2000154B0093134603AA05F01FFD0028DFD164
:108A3000124B009303AA33462146284605F015FD44
:108A40000028D5D10E4B009303AA3B462146284669
:108A500005F00BFD0028CBD10B9B03AA214628462D
:108A600005F02AFA0028C3D1039BA34218BF0920AE
:108A7000BEE70720BCE700BF3FA3020009A8020031
:108A8000D3A1020013460A4601468C2005F09DB989
:108A900013460A4601468D2005F097B92DE9FF419E
:108AA0000C46DDE90A871E46054618B90E2004B0BB
:108AB000BDE8F081002940D00378862B3DD1012309
:108AC0000393002AF2D0002EF0D0B8F1000FEDD0C1
:108AD000002FEBD03368002BE8D0D8F80030002B03
:108AE000E4D03B68002BE1D0134603AA05F0C1F99E
:108AF0000028DCD1124B009303AA334621462846B6
:108B000005F0B3FC0028D2D10E4B009303AA4346D4
:108B10002146284605F0A9FC0028C8D10A4B00933D
:108B200003AA3B462146284605F09FFC0028BED1FB
:108B3000039B9C4218BF0920B9E70720B7E700BF95
:108B40007BA3020027A30200B9A3020013460A4632
:108B50000146862005F039B92DE9FF410C46DDE9D3
:108B60000A871E46054618B90E2004B0BDE8F081FC
:108B700000293BD003787F2B38D101230393002AAF
:108B8000F2D0002EF0D0B8F1000FEDD0D8F80030C0
:108B9000002BE9D0002FE7D03B68002BE4D0134630
:108BA00003AA05F066F90028DFD1334603AA21465F
:108BB000284605F081F90028D7D10D4B009303AA70
:108BC00043462146284605F050FC0028CDD1094BEC
:108BD000009303AA3B462146284605F046FC0028A0
:108BE000C3D1039BA34218BF0920BEE70720BCE7FF
:108BF000F1A00200D1A8020070B586B0144603901F
:108C00001E460D4629B322B3002305937F23126825
:108C10008DF813300DF1130005AB029205F03FF90A
:108C2000A8B9029A05AB294603A805F0E4F870B983
:108C3000DDE9022313B1059B236008E0064B009396
:108C4000294605AB304605F0F2FB0028F3D006B00C
:108C500070BD0E20FBE700BF91A80200F7B5089F8A
:108C60000C461E46054610B90E2003B0F0BD09B3F0
:108C70000378772B1ED101230193002FF4D01346E4
:108C800001AA05F019F90028EFD1334601AA2146BF
:108C9000284605F0EEF80028E7D13B4601AA214618
:108CA000284605F009F90028DFD1019BA34218BF2F
:108CB0000920DAE70720D8E713460A46014677205D
:108CC00005F083B830B5134685B00C4688B191B134
:108CD00002786D2A0FD1012203920022009203AA8A
:108CE00005F0C3FB18B9039B9C4218BF092005B0CF
:108CF00030BD0E20FBE70720F9E77FB51446019051
:108D00001E460D4611B90E2004B070BD002AFAD0DF
:108D1000002303936D2312688DF80B300DF10B00C7
:108D200003AB009205F0BBF80028EDD1009A03AB2D
:108D3000294601A805F05FF80028E5D1DDE9002308
:108D400013B1039B2360DFE7002EDCD003AB294681
:108D5000304601F071FA0028F3D0D5E730B513465C
:108D600085B00C4688B191B102786C2A0FD10122EE
:108D70000392084A009203AA05F077FB18B9039BF7
:108D8000A34218BF092005B030BD0E20FBE7072025
:108D9000F9E700BF3FA3020013460A4601466C20D4
:108DA00005F013B830B5134685B00C4688B191B1C3
:108DB0000278702A0FD101220392084A009203AA76
:108DC00005F053FB18B9039BA34218BF092005B057
:108DD00030BD0E20FBE70720F9E700BF25AD0200FC
:108DE00013460A460146702004F0EFBF30B5134623
:108DF00085B00C4688B191B10278712A0FD1012259
:108E00000392084A009203AA05F02FFB18B9039BAE
:108E10009C4218BF092005B030BD0E20FBE707209B
:108E2000F9E700BF25AD020070B586B01446039087
:108E30001E460D4629B322B3002305937123126801
:108E40008DF813300DF1130005AB029205F027F8F1
:108E5000A8B9029A05AB294603A804F0CCFF70B963
:108E6000DDE9022313B1059B236008E0064B009364
:108E7000294605AB304605F0DAFA0028F3D006B0F3
:108E800070BD0E20FBE700BFD5AC02002DE9FF4707
:108E90000D4616469846074620B90E24204604B0D3
:108EA000BDE8F08700293CD002786E2A39D1012232
:108EB0000392002EF1D03268002AEED01268002A08
:108EC000EBD003AA04F0F8FF04460028E6D10DF128
:108ED0000B0303AA2946384604F0EEFF0446002897
:108EE000DCD19DF80B30012B19D1DFF840A0D6F86A
:108EF0000090064698F80030B34204D8039BAB427A
:108F000018BF0924CAE7CDF800A009EB860303AA1D
:108F10002946384605F0A9FA28B90136EAE7306053
:108F2000ECE70724BAE70446B8E700BF3FA3020016
:108F300013460A4601466E2004F047BF2DE9F04F64
:108F400085B00D46DDF8389090461F46064620B99C
:108F50000E24204605B0BDE8F08F00296ED00378BE
:108F60006F2B6BD101230393002AF1D01368002BE0
:108F7000EED01B68002BEBD0002FE9D03B68002B14
:108F8000E6D01B68002BE3D04B4603AA04F094FF05
:108F900004460028DDD10DF10B0303AA2946304613
:108FA00004F08AFF04460028D3D19DF80B30012B32
:108FB00033D1DFF890B0D8F800A0804699F800309F
:108FC00043451BD80DF10B0303AA2946304604F094
:108FD00073FF04460028BCD19DF80B30012B2BD128
:108FE000DFF864A0D7F80080074699F80030BB424C
:108FF00016D8039BAB4218BF0924AAE7CDF800B0EE
:109000000AEB880303AA2946304605F02EFA0446E7
:1090100000289ED108F10108D0E7C8F80000D1E788
:10902000CDF800A008EB870303AA2946304605F0D7
:109030001CFA28B90137D8E73860DAE7072488E74F
:10904000044686E7359E020027A3020013460A461F
:1090500001466F2004F0B9BE7FB50C461E4605469A
:1090600008B311B30378902B1FD101230393134648
:1090700003AA04F0FEFEA0B90D4B009303AA3346E9
:109080002146284605F0F1F958B90090089B03AA3B
:109090002146284605F0E9F918B9039B9C4218BF00
:1090A000092004B070BD0E20FBE70720F9E700BFE0
:1090B000D7AE020070B586B0144603901E460D462A
:1090C00029B322B300230593902312688DF813303F
:1090D0000DF1130005AB029204F0E1FEA8B9029A6B
:1090E00005AB294603A804F086FE70B9DDE902232A
:1090F00013B1059B236008E0064B0093294605AB9E
:10910000304605F094F90028F3D006B070BD0E206B
:10911000FBE700BF21AF02007FB50C461E460546A7
:1091200010B90E2004B070BD01B303788F2B1DD190
:1091300001230393002AF4D0002EF2D03368002BD1
:10914000EFD0134603AA04F094FE0028EAD1084B9E
:10915000009303AA33462146284605F086F90028E5
:10916000E0D1039BA34218BF0920DBE70720D9E722
:109170008BAF020013460A4601468F2004F025BE3D
:10918000F0B585B00C460A9F1E46054610B90E2064
:1091900005B0F0BD002934D00378722B31D1012302
:1091A0000393002AF3D01368002BF0D0002EEED0EA
:1091B0003368002BEBD0002FE9D03B68002BE6D0C2
:1091C000114B0093134603AA05F04FF90028DFD195
:1091D0000E4B009303AA33462146284605F045F975
:1091E0000028D5D10A4B009303AA3B4621462846C6
:1091F00005F03BF90028CBD1039B9C4218BF092006
:10920000C6E70720C4E700BFB9DE0200B59E020032
:109210000DAB020030B587B0144603900D4629B35C
:1092200022B300230593722312688DF813300DF1D9
:10923000130005AB029204F032FEA8B9029A05AB06
:10924000294603A804F0D7FD70B9DDE9022313B164
:10925000059B236008E0064B00930A9805AB29465E
:1092600005F0E5F80028F3D007B030BD0E20FBE78D
:109270009FDE020013B50C4610B90E2002B010BDDF
:1092800089B10378912B0ED101230193002AF4D0E8
:10929000134601AA04F0C9FD0028EFD1019BA342A7
:1092A00018BF0920EAE70720E8E713460A46014607
:1092B000912004F08ABD40B149B10378922B06D1C8
:1092C00001290CBF0020092070470E20704707209D
:1092D000704713460A460146922004F076BD10B44A
:1092E000019CA4465DF8044B6047000070B5114630
:1092F00086B01E46054660B35AB353B303881D2B90
:1093000029D1002205923268ADF812300DF1120019
:1093100005ABCDE9021204F09BFD0446B0B9DDE9CE
:10932000021205AB281D04F093FD044670B90B4BE7
:109330000093DDE9021205AB05F10800FFF7CFFF4E
:10934000044618B905F098F9059B3360204606B02D
:1093500070BD0E24FAE70724F8E700BFF1A402006D
:1093600030B5114685B01D46044620B31AB313B379
:109370000388172B21D1002203922A68ADF80A3006
:109380000DF10A0003ABCDE9001204F061FD80B9D4
:10939000DDE9001203AB201D04F05AFD48B9DDE9F8
:1093A000001203AB04F1080004F079FD08B9039B37
:1093B0002B6005B030BD0E20FBE70720F9E7000069
:1093C000F0B5164689B01F460546002846D0002A4B
:1093D00044D0002B42D00388192B41D100220692A1
:1093E000ADF816303A68039206AB31460DF116001F
:1093F00004F02EFD0446D0B9039A06AB3146281D71
:1094000004F026FD044690B9164B0093039A06AB70
:10941000314605F10800FFF762FF044638B9A88815
:1094200007A905F099F8039A20B1069B3B602046F6
:1094300009B0F0BD07980C4B009331460B4E4FF42A
:10944000967C06AB0CFB0060FFF749FF20B9A888AB
:1094500005F06CF80028E8D00446E8E70E24E6E7BB
:109460000724E4E705A6020091A8020030AF00201F
:1094700030B5114687B01D46044630B32AB323B336
:109480000388122B23D1002205922A68ADF81230EE
:109490000DF1120005ABCDE9021204F0D9FC90B930
:1094A000DDE9021205AB201D04F0D2FC58B9094BCE
:1094B0000093DDE9021205AB04F10800FFF70FFF8E
:1094C00008B9059B2B6007B030BD0E20FBE70720D5
:1094D000F9E700BFBDA7020030B5114687B01D46B1
:1094E000044630B32AB323B303881F2B23D10022B1
:1094F00005922A68ADF812300DF1120005ABCDE9E6
:10950000021204F0A5FC90B9DDE9021205AB201DA2
:1095100004F09EFC58B9094B0093DDE9021205AB3B
:1095200004F10800FFF7DBFE08B9059B2B6007B0CC
:1095300030BD0E20FBE70720F9E700BFD9A70200E6
:1095400030B5114687B01D46044630B32AB323B365
:1095500003881A2B23D1002205922A68ADF8123015
:109560000DF1120005ABCDE9021204F071FC90B9C7
:10957000DDE9021205AB201D04F06AFC58B9094B65
:109580000093DDE9021205AB04F10800FFF7A7FE26
:1095900008B9059B2B6007B030BD0E20FBE7072004
:1095A000F9E700BFA5A6020030B5114687B01D46F9
:1095B000044630B32AB323B30388102B23D10022EF
:1095C00005922A68ADF812300DF1120005ABCDE915
:1095D000021204F03DFC90B9DDE9021205AB201D3A
:1095E00004F036FC58B9094B0093DDE9021205ABD3
:1095F00004F10800FFF773FE08B9059B2B6007B064
:1096000030BD0E20FBE70720F9E700BF29A70200C5
:1096100070B5114688B01E460546002838D0002A8D
:1096200036D0002B34D00388112B33D10022069280
:109630003268ADF816300DF1160006ABCDE9021216
:1096400004F006FC0446C8B9DDE9021206AB281D89
:1096500004F0FEFB044688B90F4B0093DDE90212CB
:1096600006AB05F10800FFF73AFE044630B9A888BA
:1096700007A904F071FF20B1069B3360204608B0B3
:1096800070BDA88804F052FF0028F5D00446F5E725
:109690000E24F3E70724F1E7F5A7020030B51146E1
:1096A00085B01D46044620B31AB313B30388162BA6
:1096B00021D1002203922A68ADF80A300DF10A0088
:1096C00003ABCDE9001204F0C3FB80B9DDE9001261
:1096D00003AB201D04F0BCFB48B9DDE9001203AB6D
:1096E00004F1080004F0DBFB08B9039B2B6005B014
:1096F00030BD0E20FBE70720F9E7000030B511462A
:1097000087B01D460446002832D08AB383B303884D
:10971000182B2FD1002205922A68ADF812300DF1D6
:10972000120005ABCDE9021204F092FBF0B9237BE5
:10973000C3F300038DF81130DDE9021205AB201DE3
:1097400004F086FB90B90C4B0093DDE90212A0688F
:1097500005AB04F06CFE48B9DDE9021205AB0DF172
:10976000110004F09CFB08B9059B2B6007B030BDCD
:109770000E20FBE70720F9E70BA302002DE9FF41CC
:1097800014461D468046B0B3AAB3A3B30388152B75
:1097900033D12E68ADF80A30002203AF03923B4666
:1097A000324621460DF10A0004F052FB00BB98F846
:1097B0000E30C3F300038DF8093032463B46214694
:1097C00008F1040004F044FB90B9009733462246A8
:1097D000062108F1080004F08DFC48B93B463246EA
:1097E00021460DF1090004F05AFB08B9039B2B60D8
:1097F00004B0BDE8F0810E20FAE70720F8E730B5A5
:10980000114685B01D46044660B35AB353B303886E
:109810001C2B29D1002203922A68ADF80A300DF1E1
:109820000A0003ABCDE9001204F012FBC0B9DDE978
:10983000001203AB201D04F00BFB88B9DDE9001218
:1098400003AB04F1080004F02AFB48B9DDE900127B
:1098500003AB04F1090004F022FB08B9039B2B6061
:1098600005B030BD0E20FBE70720F9E730B5114603
:1098700087B01D460446002838D0002A36D0002B79
:1098800034D00388202B33D1002205922A68ADF80A
:1098900012300DF1120005ABCDE9021204F0D8FA36
:1098A00010BBDDE9021205AB201D04F0D1FAD8B9D6
:1098B000DDE9021205AB04F1080004F0F0FA98B9F2
:1098C0000C4B0093DDE9021205AB04F10A00FFF72F
:1098D00006FD48B9DDE9021205AB04F1090004F008
:1098E000DEFA08B9059B2B6007B030BD0E20FBE700
:1098F0000720F9E739A2020030B5114687B01D46AE
:10990000044630B32AB323B30388142B23D1002297
:1099100005922A68ADF812300DF1120005ABCDE9C1
:10992000021204F095FA90B9DDE9021205AB201D90
:1099300004F08EFA58B9094B0093DDE9021205AB29
:1099400004F10800FFF7CBFC08B9059B2B6007B0BA
:1099500030BD0E20FBE70720F9E700BFC1A60200DB
:1099600030B5114687B01D46044630B32AB323B341
:109970000388132B23D1002205922A68ADF81230F8
:109980000DF1120005ABCDE9021204F061FA90B9B5
:10999000DDE9021205AB201D04F05AFA58B9094B53
:1099A0000093DDE9021205AB04F10800FFF797FC14
:1099B00008B9059B2B6007B030BD0E20FBE70720E0
:1099C000F9E700BFA1A7020030B5114687B01D46D8
:1099D000044630B32AB323B303881E2B23D10022BD
:1099E00005922A68ADF812300DF1120005ABCDE9F1
:1099F000021204F02DFA90B9DDE9021205AB201D28
:109A000004F026FA58B9094B0093DDE9021205ABC0
:109A100004F10800FFF763FC08B9059B2B6007B051
:109A200030BD0E20FBE70720F9E700BF11A90200B7
:109A300070B5114686B01E46054600283AD0002A69
:109A400038D0002B36D003881B2B35D1002205924D
:109A50003268ADF812300DF1120005ABCDE90212FB
:109A600004F0F6F90446B8B9DDE9021205AB281D89
:109A700004F0EEF9044678B9DDE9021205AB05F110
:109A8000080004F00CFA044630B92B7A012BDDE90A
:109A9000021204D0059B3360204606B070BD074B10
:109AA000009305F10C0005ABFFF719FC0028F1D07D
:109AB0000446F1E70E24EFE70724EDE7A7E30200F1
:109AC00030B5114685B01D460446A0B39AB393B392
:109AD0000388222B31D1002203922A68ADF80A3084
:109AE0000DF10A0003ABCDE9001204F0B1F900BB9F
:109AF000DDE9001203AB201D04F0AAF9C8B9DDE9C5
:109B0000001203AB04F1080004F0C9F988B9DDE9DB
:109B1000001203AB04F1090004F0C1F948B9DDE912
:109B2000001203AB04F10A0004F0B9F908B9039B71
:109B30002B6005B030BD0E20FBE70720F9E70000E1
:109B400030B5114687B01D46044630B32AB323B35F
:109B50000388212B23D1002205922A68ADF8123008
:109B60000DF1120005ABCDE9021204F071F990B9C4
:109B7000DDE9021205AB201D04F06AF958B9094B62
:109B80000093DDE9021205AB04F10800FFF7A7FB23
:109B900008B9059B2B6007B030BD0E20FBE70720FE
:109BA000F9E700BF5DAF020030B5114687B01D4632
:109BB000044630B32AB323B30388232B23D10022D6
:109BC00005922A68ADF812300DF1120005ABCDE90F
:109BD000021204F03DF990B9DDE9021205AB201D37
:109BE00004F036F958B9094B0093DDE9021205ABD0
:109BF00004F10800FFF773FB08B9059B2B6007B061
:109C000030BD0E20FBE70720F9E700BF8DAE020054
:109C100030B5114687B01D46044630B32AB323B38E
:109C20000388242B23D1002205922A68ADF8123034
:109C30000DF1120005ABCDE9021204F009F990B95B
:109C4000DDE9021205AB201D04F002F958B9094BF9
:109C50000093DDE9021205AB04F10800FFF73FFBBA
:109C600008B9059B2B6007B030BD0E20FBE707202D
:109C7000F9E700BF8DAE020030B5114687B01D4632
:109C8000044630B32AB323B30388262B23D1002202
:109C900005922A68ADF812300DF1120005ABCDE93E
:109CA000021204F0D5F890B9DDE9021205AB201DCF
:109CB00004F0CEF858B9094B0093DDE9021205AB68
:109CC00004F10800FFF70BFB08B9059B2B6007B0F8
:109CD00030BD0E20FBE70720F9E700BFB9AF020057
:109CE0002DE9FF4115461E46044648B342B33BB337
:109CF0000388252B26D13768ADF80A3000220DF1F4
:109D00000C08039243463A4629460DF10A0004F036
:109D10009FF890B943463A462946201D04F098F82A
:109D200058B9CDF800803B462A46282104F10800A6
:109D300004F0E0F908B9039B336004B0BDE8F0819A
:109D40000E20FAE70720F8E710B4019C18B1A446EA
:109D50005DF8044B60470E205DF8044B704710B46B
:109D6000019C1BB1A4465DF8044B60470E205DF8D2
:109D7000044B7047F7B5044617461E460D4699B189
:109D800093B188B1DFF828C0CDF800C0FFF7DCFF41
:109D900040B9064B00933A463346294604F1120077
:109DA000FFF7D2FF03B0F0BD0E20FBE7DFA20200F9
:109DB0007DA20200F7B50F4615461E46044698B12F
:109DC00092B18BB1DFF828C0CDF800C0FFF7C7FF14
:109DD00040B9064B00932A4606F112033946204645
:109DE000FFF7BDFF03B0F0BD0E20FBE7D1A30200DB
:109DF0007BA30200F7B5044617461E460D4699B1EF
:109E000093B188B1DFF828C0CDF800C0FFF79CFF00
:109E100040B9064B00933A463346294604F11000F8
:109E2000FFF792FF03B0F0BD0E20FBE739A202005E
:109E30001DA20200F7B50F4615461E46044698B10E
:109E400092B18BB1DFF828C0CDF800C0FFF787FFD3
:109E500040B9064B00932A4606F1100339462046C6
:109E6000FFF77DFF03B0F0BD0E20FBE73FA302002C
:109E700027A302002DE9F341044617461E460D466E
:109E8000A1B19BB190B1DFF82880CDF80080FFF739
:109E90005BFF40B9CDF8008033463A46294604F1CD
:109EA0000800FFF751FF02B0BDE8F0810E20FAE78D
:109EB000A7E302002DE9F3410F4615461E4604466E
:109EC000A0B19AB193B1DFF82880CDF80080FFF7F8
:109ED00046FF40B9CDF8008006F108032A4639460E
:109EE0002046FFF73CFF02B0BDE8F0810E20FAE704
:109EF000E9E3020013B579B173B168B10078C0F33A
:109F0000000400F00E0020438DF807000DF107005B
:109F100003F0C5FF02B010BD0E20FBE713B579B109
:109F200073B168B1007800F0F004C0F3030020437F
:109F30008DF807000DF1070003F0B1FF02B010BD6E
:109F40000E20FBE7F7B5044617461E460D4689B1BD
:109F500083B178B1DFF824C0CDF800C0FFF7F4FE7C
:109F600048B933463A462946601C03B0BDE8F04084
:109F700003F095BF0E2003B0F0BD00BF1D9F02008F
:109F80002DE9FF41044617461E460D4699B393B38B
:109F900088B30078C0F3000C00F0FE0040EA0C002B
:109FA0008DF80F000DF10F0003F079FF00BB334671
:109FB0003A462946601C03F072FFC8B933463A4658
:109FC0002946A01C03F06BFF90B9DFF83080CDF874
:109FD000008033463A462946E01CFFF7B5FE38B903
:109FE000CDF8008033463A462946201DFFF7ACFEE7
:109FF00004B0BDE8F0810E20FAE700BF01A0020026
:10A0000013B579B173B168B10078C0F3000400F002
:10A010000E0020438DF807000DF1070003F03FFF0D
:10A0200002B010BD0E20FBE72DE9F04104461746B3
:10A030001E460D46D1B1CBB1C0B103F009FFB0B996
:10A0400033463A462946A01C03F002FF78B933464E
:10A050003A462946201D03F0FBFE40B933463A46F6
:10A060002946A01DBDE8F04103F0F2BE0E20BDE878
:10A07000F08113B589B183B178B10478008804F018
:10A080007F04C0F3C81044EAC010ADF806000DF11B
:10A09000060003F0DDFE02B010BD0E20FBE72DE947
:10A0A000F041044617461E460D4661B15BB150B102
:10A0B00003F0CEFE40B933463A462946A01CBDE81F
:10A0C000F04103F0ECBE0E20BDE8F08137B51C4630
:10A0D00058B152B14BB10DF1070303F0EDFE10B9C9
:10A0E0009DF80730237003B030BD0E20FBE7000061
:10A0F0002DE9FF410F4616461C46054670B36AB36C
:10A1000063B30DF10F0303F0D7FE20BB631C32468F
:10A110003946284603F0D0FEE8B9A31C324639463A
:10A12000284603F0C9FEB0B9DFF83480CDF80080CE
:10A13000E31C324639462846FFF711FE58B9CDF8E0
:10A140000080231D324639462846FFF708FE10B925
:10A150009DF80F30237004B0BDE8F0810E20FAE7BF
:10A1600065A1020037B51C4688B182B17BB10DF103
:10A17000070303F0A1FE40B922789DF8073022F0D2
:10A180000F0203F00F031343237003B030BD0E2002
:10A19000FBE7F7B50F4616461C460546B8B1B2B107
:10A1A000ABB103F089FE80B90DF1070332463946A1
:10A1B000284603F081FE40B962789DF8073022F00E
:10A1C000030203F003031343637003B0F0BD0E20DA
:10A1D000FBE72DE9F0410F4615461E460446D0B177
:10A1E000CAB1C3B103F045FEB0B9B31C2A46394623
:10A1F000204603F03EFE78B9331D2A4639462046F4
:10A2000003F037FE40B9B31D2A4639462046BDE863
:10A21000F04103F02EBE0E20BDE8F08113B549B128
:10A2200043B138B1009313460A46102103F062FF90
:10A2300002B010BD0E20FBE7F0B5044685B017460E
:10A240001E460D46C1B1BBB1B0B1007800F0FE0CA6
:10A25000C0F300004CEA00008DF80F000DF10F0074
:10A2600003F01DFE30B900963B462A460621601CCD
:10A2700003F040FF05B0F0BD0E20FBE7F0B5074648
:10A2800085B016461D460C46C9B1C3B1B8B100939E
:10A2900013460A46102103F02DFF70B93B7C03F0F2
:10A2A000FE02C3F3000313438DF80F3032462B46F2
:10A2B00021460DF10F0003F0F2FD05B0F0BD0E20B8
:10A2C000FBE713B549B143B138B1009313460A46D1
:10A2D000102103F00FFF02B010BD0E20FBE7F7B511
:10A2E000044617461E460D4669B163B158B103F0E6
:10A2F000AFFD30B900963B462A460821A01C03F06A
:10A30000F9FE03B0F0BD0E20FBE713B549B143B130
:10A3100038B1009313460A46402103F0EBFE02B029
:10A3200010BD0E20FBE737B538B132B12BB1102488
:10A33000009403F0F8FE03B030BD0E20FBE7F0B54B
:10A340000F4685B016461C460546A0B19AB193B19A
:10A350000DF10F0303F0B0FD58B906230093324608
:10A36000631C3946284603F0DEFE10B99DF80F3015
:10A37000237005B0F0BD0E20FBE7F0B50F4685B0A9
:10A3800016461C460546A8B1A2B19BB14FF0100C71
:10A39000CDF800C003F0C7FE50B90DF10F033246EF
:10A3A0003946284603F088FD10B99DF80F30237414
:10A3B00005B0F0BD0E20FBE737B538B132B12BB197
:10A3C0001024009403F0AFFE03B030BD0E20FBE775
:10A3D000F7B50F4615461E46044670B16AB163B123
:10A3E00003F047FD38B9082300932A46B31C3946C9
:10A3F000204603F098FE03B0F0BD0E20FBE737B512
:10A4000038B132B12BB14024009403F08CFE03B07C
:10A4100030BD0E20FBE70000F7B5044617461E4688
:10A420000D4619B313B308B311480090206803F028
:10A43000FEFFC8B90F4B0093606833463A46294681
:10A4400003F0F5FF80B90C4B0093A06833463A4601
:10A45000294603F0ECFF38B9084B0093E068334617
:10A460003A46294603F0E3FF03B0F0BD0E20FBE7B8
:10A47000759D0200F59D0200C3A202000BA302001D
:10A48000F7B50F4615461E46044630B32AB323B32C
:10A49000DFF858C0CDF800C003F0E7FFD8B9104B83
:10A4A00000932A46331D3946204603F0DEFF90B95B
:10A4B0000C4B00932A4606F108033946204603F068
:10A4C000D4FF40B9084B00932A4606F10C033946E5
:10A4D000204603F0CAFF03B0F0BD0E20FBE700BF2B
:10A4E000359E0200B9A30200FFA30200B59D020041
:10A4F0002DE9FF41044617461E460D46002977D038
:10A50000002B75D0002873D0DFF8F0C0CDF800C064
:10A51000FFF71AFC002868D1DFF8E480CDF800804E
:10A5200033463A462946A01CFFF70EFC00285CD1B2
:10A53000CDF8008033463A46294604F10900FFF77A
:10A5400003FC002851D133463A46294604F1100055
:10A5500003F0A5FC002848D133463A46294604F1C9
:10A56000110003F09CFC00283FD133463A462946AF
:10A5700004F1120003F093FCB8BB33463A46294677
:10A5800004F1130003F08BFC78BB33463A462946AE
:10A5900004F1140003F083FC38BB33463A462946E5
:10A5A00004F1150003F07BFCF8B9E38AC3F30B0355
:10A5B000ADF80E303A46334629460DF10E0003F051
:10A5C00047FC90B90B4B00933A463346294604F1B9
:10A5D0001800FFF7B9FB40B9074B00933A463346E2
:10A5E000294604F12000FFF7AFFB04B0BDE8F0817D
:10A5F0000E20FAE7A7E302009FA0020073A002006A
:10A6000039A202002DE9FF41044617461E460D46B9
:10A61000002941D0002B3FD0F0B390F801C00CF0DE
:10A620000C0ECCF3010C4EEA0C0C8DF80FC003F0AD
:10A6300036FC70BB33463A4629460DF10F0003F055
:10A640002EFC30BBDFF85480CDF8008033463A460C
:10A650002946A01CFFF778FBD8B9CDF80080334617
:10A660003A462946E01CFFF76FFB90B9DFF83080CF
:10A67000CDF8008033463A462946201DFFF764FB9B
:10A6800038B9CDF8008033463A462946601DFFF7B9
:10A690005BFB04B0BDE8F0810E20FAE7F59E0200F6
:10A6A00001A0020037B539B133B128B1034C009491
:10A6B000FFF74AFB03B030BD0E20FBE7459F0200C9
:10A6C000F0B5064685B017461D460C4629B323B3A0
:10A6D00018B390F812C00CF0060ECCF3000C4EEA42
:10A6E0000C0C8DF80FC0DFF83CC0CDF800C0FFF7B0
:10A6F0002BFB80B90A4B00933A462B46214606F1C4
:10A700000800FFF721FB30B92B463A4621460DF1F0
:10A710000F0003F0C4FB05B0F0BD0E20FBE700BF47
:10A72000DFA2020039A20200F7B5044617461E4612
:10A730000D4661B35BB350B3DFF860C0CDF800C025
:10A74000FFF702FB08BB33463A462946E01D03F0FB
:10A75000A6FBD0B90F4B00933A463346294604F185
:10A760000800FFF7F1FA80B933463A46294604F16A
:10A77000100003F094FB40B9074B00933A46334670
:10A78000294604F11400FFF7DFFA03B0F0BD0E20F4
:10A79000FBE700BF29A00200759E020039A202005B
:10A7A00037B539B133B128B1034C0094FFF7CCFA77
:10A7B00003B030BD0E20FBE7819F020037B539B1F1
:10A7C00033B128B1034C0094FFF7BEFA03B030BD9B
:10A7D0000E20FBE729A0020037B539B133B128B10B
:10A7E000034C0094FFF7B0FA03B030BD0E20FBE736
:10A7F00029A0020030B421B11BB110B130BC03F06C
:10A800004EBB0E2030BC7047F0B50F4685B01646E3
:10A810001C460546D0B3CAB3C3B30DF10B0303F016
:10A820004BFB88BB23789DF80B2023F01F0302F01D
:10A830001F021A432346394603F8012B28463246A5
:10A8400003F03AFB00BB04F1080303930523CDE9B1
:10A850000033324603AB3946284603F0ECFB98B987
:10A86000A31C32463946284603F003FB60B9231D7A
:10A8700032463946284603F0FCFA28B9A31D324671
:10A880003946284603F0F5FA05B0F0BD0E20FBE787
:10A890002DE9F341044617461E460D46A1B19BB172
:10A8A00090B1DFF82880CDF80080FFF74DFA40B96D
:10A8B000CDF8008033463A46294604F11000FFF7F0
:10A8C00043FA02B0BDE8F0810E20FAE719A40200B5
:10A8D0002DE9F3410F4615461E460446A0B19AB134
:10A8E00093B1DFF82880CDF80080FFF738FA40B93F
:10A8F000CDF8008006F110032A4639462046FFF7BE
:10A900002EFA02B0BDE8F0810E20FAE781A4020021
:10A9100013B579B173B168B10078C0F3000400F0E9
:10A920000E0020438DF807000DF1070003F0B7FA81
:10A9300002B010BD0E20FBE7F7B5044617461E46D1
:10A940000D4669B163B158B103F082FA30B900968F
:10A950003B462A460521A01C03F0CCFB03B0F0BD0A
:10A960000E20FBE7F7B50F4615461E46044670B1AC
:10A970006AB163B103F07DFA38B9052300932A4622
:10A98000B31C3946204603F0CEFB03B0F0BD0E20C9
:10A99000FBE70000F7B5044617461E460D46A9B171
:10A9A000A3B198B103F054FA70B933463A46294638
:10A9B000A01C03F04DFA38B9054B0093606833468C
:10A9C0003A46294603F033FD03B0F0BD0E20FBE705
:10A9D00051DE0200F7B50F4615461E460446A8B1E3
:10A9E000A2B19BB103F045FA70B9B31C2A463946AF
:10A9F000204603F03EFA38B9054B00932A46331D32
:10AA00003946204603F031FD03B0F0BD0E20FBE7D0
:10AA100073DE020007B559B153B148B10093006825
:10AA200013460A46062103F0C2FA03B05DF804FBA0
:10AA30000E20FAE737B540B13AB133B10624CDE97B
:10AA4000004403F0F8FA03B030BD0E20FBE737B541
:10AA500038B132B12BB12024009403F064FB03B071
:10AA600030BD0E20FBE70000F7B5044617461E4632
:10AA70000D46D1B1CBB1C0B1DFF834C0CDF800C0C4
:10AA8000FFF762F978B900963B462A461021E01D8F
:10AA900003F030FB38B900963B462A46102104F1FA
:10AAA000170003F027FB03B0F0BD0E20FBE700BF4B
:10AAB00039A202002DE9F3410F4615461E46044611
:10AAC000F8B1F2B1EBB1DFF840C0CDF800C0FFF74C
:10AAD00046F998B94FF01008CDF80080F31D2A46CA
:10AAE0003946204603F01FFB40B9CDF8008006F13F
:10AAF00017032A463946204603F015FB02B0BDE88D
:10AB0000F0810E20FAE700BF3FA30200F0B50F4628
:10AB100085B016461C460546002867D0002A65D039
:10AB2000002B63D0DFF8CCC0CDF800C0FFF717F9D9
:10AB3000002859D12E4B00933246231D3946284612
:10AB400003F093FC00284FD104F108033246394644
:10AB5000284603F06AF9002846D104F10C03324676
:10AB60003946284603F085F900283DD104F10E034B
:10AB700032463946284603F09FF9A8BB04F10F037B
:10AB800003930523CDE90033324603AB394628460B
:10AB900003F051FA40BB04F114033246394628460B
:10ABA00003F08AF900BB04F1150332463946284602
:10ABB00003F082F9C0B904F116033246394628463B
:10ABC00003F07AF980B90DF10B0332463946284675
:10ABD00003F072F940B9E27D9DF80B3022F01F02BC
:10ABE00003F01F031343E37505B0F0BD0E20FBE730
:10ABF0003FA3020093A102002DE9F041044617464D
:10AC00001E460D4661B15BB150B103F021F940B968
:10AC100033463A462946A01CBDE8F04103F018B976
:10AC20000E20BDE8F0812DE9F0410F4615461E4685
:10AC3000044660B15AB153B103F01BF940B9B31CDB
:10AC40002A4639462046BDE8F04103F012B90E20ED
:10AC5000BDE8F0812DE9FF410F4616461C4605462A
:10AC6000A0B39AB393B3DFF868C0B3F80A80CDF805
:10AC700000C0FFF774F830BB0DF10F0332463946C0
:10AC8000284603F019F9F0B963789DF80F2062F3B4
:10AC900001036370324604F108033946284603F085
:10ACA000E8F880B904F10A0332463946284603F031
:10ACB000E0F840B923893246CDE900833946231DA7
:10ACC000284603F0B8F904B0BDE8F0810E20FAE799
:10ACD000CDA00200F7B5044617461E460D46E1B169
:10ACE000DBB1D0B103F0DBF8A8B933463A462946C8
:10ACF000601C03F0D4F870B933463A462946A01CCC
:10AD000003F0A6F838B9064B0093606833463A461C
:10AD1000294603F08CFB03B0F0BD0E20FBE700BF1B
:10AD20001DA20200F7B50F4615461E460446E0B1C7
:10AD3000DAB1D3B103F0C0F8A8B9731C2A4639467A
:10AD4000204603F0B9F870B9B31C2A4639462046AC
:10AD500003F08FF838B9064B00932A46331D394665
:10AD6000204603F082FB03B0F0BD0E20FBE700BFDE
:10AD700027A3020013B561B15BB150B10078C0F3F5
:10AD800000008DF807000DF1070003F088F802B00D
:10AD900010BD0E20FBE737B51C4670B16AB163B138
:10ADA0000DF1070303F088F828B923789DF80720F0
:10ADB00062F30003237003B030BD0E20FBE7F7B54C
:10ADC0000F4616461C460546A0B19AB193B103F052
:10ADD00050F868B90DF1070332463946284603F0AA
:10ADE0006BF828B9A3789DF8072062F30003A370DD
:10ADF00003B0F0BD0E20FBE72DE9F0410F461546EC
:10AE00001E46044660B15AB153B103F055F840B93B
:10AE1000B31C2A4639462046BDE8F04103F029B864
:10AE20000E20BDE8F081F7B50F4616461C460546D4
:10AE300050B34AB343B3013303F03EF810BBA31C35
:10AE400032463946284603F037F8D8B9E31C324673
:10AE50003946284603F030F8A0B923463246394631
:10AE6000284603F029F868B90DF107033246394640
:10AE7000284603F021F828B923799DF8072062F3CA
:10AE80000003237103B0F0BD0E20FBE72DE9F04174
:10AE9000044617461E460D46D1B1CBB1C0B102F0F3
:10AEA000D7FFB0B933463A462946A01C02F0D0FF7E
:10AEB00078B933463A462946201D02F0C9FF40B909
:10AEC00033463A462946A01DBDE8F04102F0C0BF16
:10AED0000E20BDE8F0812DE9F0410F4615461E46D3
:10AEE0000446D0B1CAB1C3B102F0C3FFB0B9B31CBC
:10AEF0002A463946204602F0BCFF78B9331D2A465F
:10AF00003946204602F0B5FF40B9B31D2A463946FE
:10AF10002046BDE8F04102F0ACBF0E20BDE8F08154
:10AF20002DE9F041044617461E460D4699B193B1EE
:10AF300088B102F08DFF78B933463A462946A01C05
:10AF400002F086FF40B933463A462946201DBDE847
:10AF5000F04102F07DBF0E20BDE8F0812DE9F04107
:10AF6000044617461E460D4661B15BB150B102F072
:10AF700096FF40B933463A462946601CBDE8F04189
:10AF800002F08DBF0E20BDE8F0812DE9F0410F46A3
:10AF900015461E46044660B15AB153B102F08CFF0B
:10AFA00040B9731C2A4639462046BDE8F04102F0FC
:10AFB00083BF0E20BDE8F081F7B5044617461E4654
:10AFC0000D46E1B1DBB1D0B102F069FFA8B933465B
:10AFD0003A462946601C02F062FF70B933463A4691
:10AFE0002946A01C02F05BFF38B9064B00933A4695
:10AFF00033462946201DFEF7A7FE03B0F0BD0E2004
:10B00000FBE700BF759E020013B579B173B168B15B
:10B010000078C0F3000400F07E0020438DF80700A4
:10B020000DF1070002F03BFF02B010BD0E20FBE760
:10B0300037B51C4688B182B17BB10DF1070302F030
:10B040003BFF40B922789DF8073022F07F0203F0E1
:10B050007F031343237003B030BD0E20FBE737B5E9
:10B060001C4688B182B17BB10DF1070302F024FFC9
:10B0700040B922789DF8073022F0030203F0030361
:10B080001343237003B030BD0E20FBE730B420B172
:10B090001AB113B130BC02F0ECBE0E2030BC7047C8
:10B0A0007FB50C461E46054610B90E2004B070BD93
:10B0B00001B303789F2B1DD101230393002AF4D001
:10B0C000002EF2D03368002BEFD0134603AA02F013
:10B0D000D0FE0028EAD1084B009303AA334621464C
:10B0E000284603F0C2F90028E0D1039B9C4218BF18
:10B0F0000920DBE70720D9E735BD020013460A46E1
:10B1000001469F2002F061BEF0B585B00C460A9F53
:10B110001E46054610B90E2005B0F0BD00292FD0FF
:10B120000378A02B2CD101230393002AF3D0002E07
:10B13000F1D03368002BEED0002FECD03B68002B11
:10B14000E9D0134603AA02F094FE0028E4D10D4B87
:10B15000009303AA33462146284603F086F90028C7
:10B16000DAD1094B009303AA3B462146284603F057
:10B170007CF90028D0D1039B9C4218BF0920CBE763
:10B180000720C9E7CDE1020035BD020013460A469B
:10B190000146A02002F019BEF0B585B00C460A9F0A
:10B1A0001E46054610B90E2005B0F0BD09B3037860
:10B1B000A22B1ED101230393002AF4D0002EF2D03B
:10B1C0003368002BEFD0002FEDD0134603AA02F016
:10B1D00050FE0028E8D10097334603AA21462846AE
:10B1E00002F082FE0028DFD1039B9C4218BF092099
:10B1F000DAE70720D8E713460A460146A22002F004
:10B20000E4BD00007FB50C461E460546C8B1D1B16D
:10B2100003789D2B17D101230393134603AA02F051
:10B2200028FE60B9094B009303AA334621462846FD
:10B2300003F01BF918B9039B9C4218BF092004B006
:10B2400070BD0E20FBE70720F9E700BF35BD020007
:10B2500013460A4601469D2002F0B7BD7FB50C4655
:10B260001E460546C8B1D1B103789E2B17D10123E4
:10B270000393134603AA02F0FCFD60B9094B009347
:10B2800003AA33462146284603F0EFF818B9039B7A
:10B290009C4218BF092004B070BD0E20FBE70720B8
:10B2A000F9E700BF35BD020013460A4601469E205D
:10B2B00002F08BBD73B50C461E460546B8B1C1B150
:10B2C0000378A42B15D101230193134601AA02F0A0
:10B2D000D0FD50B9334601AA2146284602F0C9FDE7
:10B2E00018B9019BA34218BF092002B070BD0E20FF
:10B2F000FBE70720F9E713460A460146A42002F0BF
:10B3000064BD00007FB50C461E46054600B309B378
:10B3100003789B2B1ED101230393134603AA02F04B
:10B32000A8FD98B9334603AA2146284602F0A1FD9C
:10B3300060B9094B009303AA089B2146284603F0F5
:10B3400094F818B9039B9C4218BF092004B070BD43
:10B350000E20FBE70720F9E7CDE1020013460A467D
:10B3600001469B2002F031BD73B50C461E460546D2
:10B37000F0B1F9B10378A12B1CD10123019313463D
:10B3800001AA02F076FD88B9334601AA2146284673
:10B3900002F06FFD50B9069B01AA2146284602F033
:10B3A00068FD18B9019B9C4218BF092002B070BD0E
:10B3B0000E20FBE70720F9E713460A460146A120C5
:10B3C00002F003BD7FB50C461E460546C8B1D1B19B
:10B3D00003789C2B17D101230393134603AA02F091
:10B3E00048FD60B9094B009303AA3346214628461D
:10B3F00003F03BF818B9039B9C4218BF092004B026
:10B4000070BD0E20FBE70720F9E700BF35BD020045
:10B4100013460A4601469C2002F0D7BC7FB50C4675
:10B420001E460546C8B1D1B10378A32B17D101231D
:10B430000393134603AA02F01CFD60B9094B009365
:10B4400003AA33462146284603F00FF818B9039B98
:10B450009C4218BF092004B070BD0E20FBE70720F6
:10B46000F9E700BFADBE020013460A460146A3201D
:10B4700002F0ABBC73B50C461E460546B8B1C1B16F
:10B480000378A52B15D101230193134601AA02F0DD
:10B49000F0FC50B9334601AA2146284602F0E9FCE7
:10B4A00018B9019B9C4218BF092002B070BD0E2044
:10B4B000FBE70720F9E713460A460146A52002F0FC
:10B4C00084BC10B4019CA4465DF8044B60470000A6
:10B4D00030B5114687B01D460446002837D0002AF3
:10B4E00035D0002B33D00388342B32D10022059283
:10B4F0002A68ADF812300DF1120005ABCDE9021249
:10B5000002F0A6FC08BBDDE9021205AB201D02F02B
:10B510009FFCD0B9DDE9021205ABA01D02F098FC3A
:10B5200098B9DDE9021205AB04F1080002F090FCC5
:10B5300058B9094B0093DDE9021205AB04F10A008A
:10B54000FFF7BFFF08B9059B2B6007B030BD0E2089
:10B55000FBE70720F9E700BF09BF020030B511463D
:10B5600087B01D460446002837D0002A35D0002B6E
:10B5700033D00388322B32D1002205922A68ADF8ED
:10B5800012300DF1120005ABCDE9021202F060FCA1
:10B5900008BBDDE9021205AB201D02F059FCD0B951
:10B5A000DDE9021205ABA01D02F052FC98B9DDE9FD
:10B5B000021205AB04F1080002F04AFC58B9094B2D
:10B5C0000093DDE9021205AB04F10A00FFF779FFF1
:10B5D00008B9059B2B6007B030BD0E20FBE70720A4
:10B5E000F9E700BF95BF020030B5114687B01D4690
:10B5F0000446002837D0002A35D0002B33D00388EA
:10B60000352B32D1002205922A68ADF812300DF1A7
:10B61000120005ABCDE9021202F01AFC08BBDDE90D
:10B62000021205AB201D02F013FCD0B9DDE90212B5
:10B6300005ABA01D02F00CFC98B9DDE9021205ABC8
:10B6400004F1080002F004FC58B9094B0093DDE94D
:10B65000021205AB04F10A00FFF733FF08B9059B9E
:10B660002B6007B030BD0E20FBE70720F9E700BFD5
:10B67000DDBD020030B5114687B01D4604460028E6
:10B6800037D0002A35D0002B33D00388372B32D166
:10B69000002205922A68ADF812300DF1120005ABB8
:10B6A000CDE9021202F0D4FB08BBDDE9021205ABC2
:10B6B000201D02F0CDFBD0B9DDE9021205ABA01DC3
:10B6C00002F0C6FB98B9DDE9021205AB04F10800EF
:10B6D00002F0BEFB58B9094B0093DDE9021205AB3D
:10B6E00004F10A00FFF7EDFE08B9059B2B6007B0D7
:10B6F00030BD0E20FBE70720F9E700BF23BE0200A4
:10B7000030B5114687B01D460446002837D0002AC0
:10B7100035D0002B33D00388332B32D10022059251
:10B720002A68ADF812300DF1120005ABCDE9021216
:10B7300002F08EFB08BBDDE9021205AB201D02F012
:10B7400087FBD0B9DDE9021205ABA01D02F080FB3A
:10B7500098B9DDE9021205AB04F1080002F078FBAC
:10B7600058B9094B0093DDE9021205AB04F10A0058
:10B77000FFF7A7FE08B9059B2B6007B030BD0E2070
:10B78000FBE70720F9E700BFF1BF020030B5114623
:10B7900087B01D460446002837D0002A35D0002B3C
:10B7A00033D00388392B32D1002205922A68ADF8B4
:10B7B00012300DF1120005ABCDE9021202F048FB88
:10B7C00008BBDDE9021205AB201D02F041FBD0B938
:10B7D000DDE9021205ABA01D02F03AFB98B9DDE9E4
:10B7E000021205AB04F1080002F032FB58B9094B14
:10B7F0000093DDE9021205AB04F10A00FFF761FED8
:10B8000008B9059B2B6007B030BD0E20FBE7072071
:10B81000F9E700BF4DC0020030B5114687B01D46A4
:10B820000446002837D0002A35D0002B33D00388B7
:10B83000302B32D1002205922A68ADF812300DF17A
:10B84000120005ABCDE9021202F002FB08BBDDE9F4
:10B85000021205AB201D02F0FBFAD0B9DDE902129D
:10B8600005ABA01D02F0F4FA98B9DDE9021205ABB0
:10B8700004F1080002F0ECFA58B9094B0093DDE935
:10B88000021205AB04F10A00FFF71BFE08B9059B85
:10B890002B6007B030BD0E20FBE70720F9E700BFA3
:10B8A00095C0020030B5114687B01D4604460028F9
:10B8B00037D0002A35D0002B33D00388362B32D135
:10B8C000002205922A68ADF812300DF1120005AB86
:10B8D000CDE9021202F0BCFA08BBDDE9021205ABA9
:10B8E000201D02F0B5FAD0B9DDE9021205ABA01DAA
:10B8F00002F0AEFA98B9DDE9021205AB04F10800D6
:10B9000002F0A6FA58B9094B0093DDE9021205AB23
:10B9100004F10A00FFF7D5FD08B9059B2B6007B0BD
:10B9200030BD0E20FBE70720F9E700BFF1C00200A1
:10B9300030B5114687B01D460446002837D0002A8E
:10B9400035D0002B33D00388312B32D10022059221
:10B950002A68ADF812300DF1120005ABCDE90212E4
:10B9600002F076FA08BBDDE9021205AB201D02F0F9
:10B970006FFAD0B9DDE9021205ABA01D02F068FA3A
:10B9800098B9DDE9021205AB04F1080002F060FA93
:10B9900058B9094B0093DDE9021205AB04F10A0026
:10B9A000FFF78FFD08B9059B2B6007B030BD0E2057
:10B9B000FBE70720F9E700BF51BE020030B5114692
:10B9C00087B01D460446002837D0002A35D0002B0A
:10B9D00033D003883B2B32D1002205922A68ADF880
:10B9E00012300DF1120005ABCDE9021202F030FA6F
:10B9F00008BBDDE9021205AB201D02F029FAD0B91F
:10BA0000DDE9021205ABA01D02F022FA98B9DDE9CA
:10BA1000021205AB04F1080002F01AFA58B9094BFA
:10BA20000093DDE9021205AB04F10A00FFF749FDBE
:10BA300008B9059B2B6007B030BD0E20FBE707203F
:10BA4000F9E700BF39C1020030B5114687B01D4685
:10BA50000446002837D0002A35D0002B33D0038885
:10BA6000382B32D1002205922A68ADF812300DF140
:10BA7000120005ABCDE9021202F0EAF908BBDDE9DC
:10BA8000021205AB201D02F0E3F9D0B9DDE9021284
:10BA900005ABA01D02F0DCF998B9DDE9021205AB97
:10BAA00004F1080002F0D4F958B9094B0093DDE91C
:10BAB000021205AB04F10A00FFF703FD08B9059B6C
:10BAC0002B6007B030BD0E20FBE70720F9E700BF71
:10BAD0004DC1020030B5114687B01D46044600280E
